S01500005461736B5F73776974636865722E73726563B4
S11300000C9434000C9451000C9451000C94510045
S11300100C9451000C9451000C9451000C94510018
S11300200C9451000C9451000C9451000C948C00CD
S11300300C9451000C9451000C9451000C945100F8
S11300400C9451000C9451000C9451000C945100E8
S11300500C9451000C9451000C9451000C945100D8
S11300600C9451000C94510011241FBECFEFD8E022
S1130070DEBFCDBF11E0A0E0B1E0EEECF8E002C0DD
S113008005900D92AA30B107D9F721E0AAE0B1E0BA
S113009001C01D92A433B207E1F70E9464000C94DE
S11300A065040C940000FFCFC0E215B864E170E071
S11300B080E090E00E94D402C5B964E170E080E081
S11300C090E00E94D402F1CF84E590E00E94F80110
S11300D083E590E00E94F8010E948F0280E090E0A6
S11300E00895E0912201F09123010190F081E02D27
S11300F00484F585E02D0995F894E0912201F091AE
S113010023010190F081E02D81E090E0938B828BBC
S1130110ECE8F0E009940895F89480912C01909112
S11301202D01892B59F081E090E090930701809391
S1130130060110922D0110922C010AC08091060133
S11301409091070121E08227909307018093060193
S11301502091280130912901121613062CF04091A8
S113016022015091230170C020912801309129016E
S1130170121613063CF0409122015091230160E0D5
S113018070E058C04091220150912301C0900A01AF
S1130190D0900B010D2C000CEE08FF08ECE0F1E010
S11301A020E030E060E070E000811181D801CD9161
S11301B0DC918C899D89AE89BF89181619061A06A7
S11301C01B064CF48C199D09AE09BF098C8B9D8BC1
S11301D0AE8BBF8B20C01C8A1D8A1E8A1F8AEA012F
S11301E0AA81BB8115961C930E931497C081D1816B
S11301F0BB83AA83A081B18115965C934E93149717
S113020080819181DA0113969C938E9312971182C7
S113021010826F5F7F4F2F5F3F4F80912801909135
S113022029013296281739070CF4BECF80910601B4
S1130230909107012091280130912901261B370B49
S1130240309329012093280120910801309109015C
S11302502115310521F4EA01E881F9811AC01092CF
S1130260090110920801DA01ED91FC9111972481A2
S11302703581022E0DBE22813381022E0EBE2085D1
S11302803185222F2F9322853385222F2F93118A94
S1130290108A892B31F482899389009709F034C03C
S11302A0A5C082899389892B09F02EC00F920FB6BD
S11302B0F8940F921F9211242F923F924F925F92C3
S11302C06F927F928F929F92AF92BF92CF92DF9262
S11302D0EF92FF920F931F932F933F934F935F934C
S11302E06F937F938F939F93AF93BF93CF93DF933A
S11302F0EF93FF932DB6822D90E0958384833EB6D1
S1130300832D90E093838283EA01AA81BB81ED91DE
S1130310FC91119782899389892B19F1B09321015A
S1130320A093200112960D90BC91A02DBB83AA83AB
S113033015965C934E931497B0932301A0932201D6
S1130340CF010E94CD0380912001909121010E9450
S1130350CD03E0912201F09123010190F081E02D81
S113036004C0B0932301A093220180899189892B31
S113037099F084819581082E0DBE82819381082E87
S11303800EBE80859185282F2F9382859385282FF3
S11303902F93118A108A2AC084819581082E0DBE5C
S11303A082819381082E0EBEFF91EF91DF91CF9150
S11303B0BF91AF919F918F917F916F915F914F9179
S11303C03F912F911F910F91FF90EF90DF90CF906D
S11303D0BF90AF909F908F907F906F905F904F9061
S11303E03F902F901F900F900FBE0F907894189508
S11303F0EF92FF920F931F93CF93DF938C01809121
S1130400260190912701892B09F46CC0E090220108
S1130410F090230188E190E00E943803EC01F70199
S113042093838283FD82EC82909323018093220143
S113043088E190E00E943803888399831B821A82A2
S1130440FC01809126019091270191838083158777
S1130450048781E790E0978786879C01332731875B
S113046020879287138640912601509127012CE919
S11304702403C001259F900D11248053984F992780
S11304809583848340912601509127012403C00160
S1130490259F900D11248053984F9283138281E0FD
S11304A090E0918B808B138A128A148A158A168A9B
S11304B0178A809126019091270101969093270134
S11304C08093260180912A0190912B0101969093AB
S11304D02B0180932A01DF91CF911F910F91FF90FF
S11304E0EF90089586E090E00E943803EC01909329
S11304F023018093220190932501809324019093FA
S113050021018093200188E190E00E9438038883D0
S11305109983DB83CA83DD83CC83FC0192CFF89477
S11305208FEF84B980E49FE190930B0180930A01DB
S11305301092800010928100109285001092840025
S113054080910A0190910B01909389008093880017
S11305508091810088608093810080918100816016
S11305608093810080916F00826080936F00A091DE
S11305702201B0912301E0912401F0912501139609
S1130580FC93EE931297B583A483F0932301E09335
S11305902201789480912E0190912F0101969093DD
S11305A02F0180932E01F6CF9B01AC01F894C091EA
S11305B02201D0912301E881F981A0910A01B0912F
S11305C00B010E941603DC01CB01880F991FAA1F9F
S11305D0BB1F848B958BA68BB78BEC81FD818A81A5
S11305E09B8193838283AA81BB811596FC93EE93AE
S11305F01497E0912801F0912901EE0FFF1FE45FA9
S1130600FE4FD183C08380912801909129010196E6
S1130610909329018093280181E090E090932D012B
S113062080932C017894ECE8F0E00994B7FF0C94E3
S11306301E030E941E03821B930B08950E9429032C
S1130640A59F900DB49F900DA49F800D911D112422
S11306500895A29FB001B39FC001A39F700D811D97
S11306601124911DB29F700D811D1124911D0895B7
S1130670CF93DF938230910510F482E090E0E09113
S11306803201F091330120E030E0C0E0D0E0309757
S113069011F14081518148175907C0F04817590793
S11306A061F482819381209719F09B838A832BC004
S11306B0909333018093320126C02115310519F03E
S11306C04217530718F49A01BE01DF01EF010280BB
S11306D0F381E02DDCCF2115310509F1281B390BFD
S11306E02430310590F412968D919C9113976115E5
S11306F0710521F0FB019383828304C0909333013D
S113070080933201FD01329644C0FD01E20FF31FD4
S113071081939193225031092D933C933AC02091B7
S1130720300130913101232B41F4209102013091A9
S11307300301309331012093300120910001309165
S113074001012115310541F42DB73EB74091040153
S113075050910501241B350BE0913001F0913101DA
S1130760E217F307A0F42E1B3F0B2817390778F084
S1130770AC014E5F5F4F2417350748F04E0F5F1FE3
S113078050933101409330018193919302C0E0E092
S1130790F0E0CF01DF91CF9108950F931F93CF9392
S11307A0DF93009709F48CC0FC0132971382128204
S11307B000913201109133010115110581F420815A
S11307C03181820F931F209130013091310128171C
S11307D0390779F5F0933101E093300171C0D80104
S11307E040E050E0AE17BF0750F412962D913C91B3
S11307F01397AD012115310509F1D901F3CF9D01FD
S1130800DA013383228360817181860F971F8217F7
S1130810930769F4EC0128813981260F371F2E5F75
S11308203F4F318320838A819B8193838283452B2D
S113083029F4F0933301E093320142C01396FC9300
S1130840EE931297ED01499159919E01240F351FA2
S1130850E217F30771F480819181840F951F02964A
S113086011969C938E938281938113969C938E937D
S11308701297E0E0F0E0D80112968D919C911397C5
S1130880009719F0F8018C01F6CF8D919C91980195
S11308902E5F3F4F820F931F209130013091310121
S11308A02817390769F4309729F41092330110920C
S11308B0320102C01382128210933101009330017D
S11108C0DF91CF911F910F910895F894FFCF0F
S10D08CE00003401200001000100C5
S9030000FC
