:100000000C9434000C9451000C9451000C94510049
:100010000C9451000C9451000C9451000C9451001C
:100020000C9451000C9451000C9451000C94520209
:100030000C9451000C9451000C9451000C945100FC
:100040000C9451000C9451000C9451000C945100EC
:100050000C9451000C9451000C9451000C945100DC
:100060000C9451000C94510011241FBECFEFD8E026
:10007000DEBFCDBF11E0A0E0B1E0E8E4FAE002C0ED
:1000800005900D92AA30B107D9F721E0AAE0B1E0BE
:1000900001C01D92A634B207E1F70E94AB010C9497
:1000A00022050C940000CF93DF9300D000D0CDB791
:1000B000DEB719821A821B821C8289819A81AB81E8
:1000C000BC810196A11DB11D89839A83AB83BC833A
:1000D00085E290E0FC01108219821A821B821C8248
:1000E0006AE070E080E090E00E943102E6CFCF93BA
:1000F000DF9300D000D0CDB7DEB719821A821B8201
:100100001C8289819A81AB81BC810196A11DB11DA0
:1001100089839A83AB83BC8385E290E020E2FC0173
:10012000208319821A821B821C82EBCFCF93DF932C
:10013000CDB7DEB78091140190911501FC0180814B
:10014000918121E030E0FC01318B208B82E592E04F
:10015000FC010994DF91CF9108950F931F93CF93E2
:10016000DF9300D0CDB7DEB79A83898380910C01ED
:1001700090910D01892B99F40091100110911101BA
:1001800086E190E00E94F503F801918380838091DD
:10019000100190911101FC011382128236C000916E
:1001A00014011091150186E190E00E94F503F80119
:1001B000938382838091140190911501FC018281C7
:1001C00093812091140130911501FC013583248322
:1001D0008091140190911501FC018281938190938B
:1001E000150180931401009114011091150186E10D
:1001F00090E00E94F503F8019183808380911401BF
:1002000090911501FC01138212828091140190914A
:100210001501FC018081918120910C0130910D012B
:10022000FC01318320838091140190911501FC0120
:100230008081918129813A81FC01358724878091D1
:10024000140190911501FC0180819181209114018C
:1002500030911501F90120813181F901248535851D
:100260003327FC013187208780911401909115017B
:10027000FC01808191812091140130911501F901D7
:1002800020813181F90124853585232F3327FC0115
:10029000338722878091140190911501FC018081A0
:1002A000918140910C0150910D016CE96403900122
:1002B000659F300D11242053384F3327FC013583BF
:1002C00024838091140190911501FC01808191811A
:1002D00040910C0150910D016CE964039001659F00
:1002E000300D11242053384F232F3327FC01338343
:1002F00022838091140190911501FC0180819181EC
:1003000021E030E0FC01378726878091140190912D
:100310001501FC0180819181FC01118A108A809174
:10032000140190911501FC0180819181FC01128AD8
:10033000138A148A158A80910C0190910D010196FF
:1003400090930D0180930C010F900F90DF91CF914E
:100350001F910F910895CF93DF93CDB7DEB7F89437
:1003600084E290E02FEFFC01208380E49FE19093F2
:100370000F0180930E0180E890E0FC01108281E87B
:1003800090E0FC01108284E890E0FC011182108270
:1003900088E890E020910E0130910F01FC0131833B
:1003A000208381E890E021E830E0F9012081286095
:1003B000FC01208381E890E021E830E0F901208110
:1003C0002160FC0120838FE690E02FE630E0F90108
:1003D00020812260FC01208386E090E00E94F503EA
:1003E000909311018093100180911001909111015F
:1003F000909315018093140183E590E00E94AD0075
:1004000087E790E00E94AD0086E990E00E94AD0091
:1004100080911401909115012091100130911101EA
:10042000FC0133832283809110019091110120916E
:10043000140130911501FC01358324838091100152
:1004400090911101909315018093140178948091FB
:100450000A0190910B01019690930B0180930A0180
:10046000F6CF7B018C018091140190911501DC0184
:10047000ED91FC9180910E0190910F01092E000CDD
:10048000AA0BBB0B9C01AD01C801B7010E94CB03B5
:10049000DC01CB01828B938BA48BB58B82E592E040
:1004A000FC010994F894809108019091090121E0E0
:1004B0008227909309018093080180910601909111
:1004C0000701892B09F43EC0109207011092060122
:1004D0008091140190911501FC0180819181FC01B2
:1004E00084819581082E0DBE809114019091150193
:1004F000FC0180819181FC0182819381082E0EBED6
:100500008091140190911501FC0180819181FC0181
:1005100080859185282F2F9380911401909115014A
:10052000FC0180819181FC0182859385282F2F9386
:100530008091140190911501FC0180819181FC0151
:10054000178616868091080190910901009709F499
:1005500020C18091140190911501FC01808191814D
:10056000FC0180899189892B09F03CC00F920FB65C
:10057000F8940F921F9211242F923F924F925F9204
:100580006F927F928F929F92AF92BF92CF92DF92A3
:10059000EF92FF920F931F932F933F934F935F938D
:1005A0006F937F938F939F93AF93BF93CF93DF937B
:1005B000EF93FF930DB68091140190911501FC010A
:1005C00080819181202DFC01358324830EB680919A
:1005D000140190911501FC0180819181202DFC0175
:1005E000338322838091140190911501FC01828153
:1005F0009381FC0180819181FC0180899189892B03
:10060000D9F18091140190911501FC0182819381AF
:100610009093130180931201809114019091150120
:100620002091120130911301F90122813381FC01E3
:10063000338322838091140190911501FC01828102
:1006400093819093150180931401809112019091F0
:100650001301FC01808191810E948A048091120122
:1006600090911301FC0113821282809112019091EA
:1006700013010E948A040BC080911401909115010E
:10068000FC018281938190931501809314018091E4
:10069000140190911501FC0180819181FC018685F6
:1006A0009785892B09F43BC0809114019091150125
:1006B000FC0180819181FC0184819581082E0DBE11
:1006C0008091140190911501FC0180819181FC01C0
:1006D00082819381082E0EBE8091140190911501A4
:1006E000FC0180819181FC0180859185282F2F93C9
:1006F0008091140190911501FC0180819181FC0190
:1007000082859385282F2F93809114019091150154
:10071000FC0180819181FC01178616863AC0809188
:10072000140190911501FC0180819181FC0184816B
:100730009581082E0DBE8091140190911501FC0148
:1007400080819181FC0182819381082E0EBEFF91F0
:10075000EF91DF91CF91BF91AF919F918F917F9159
:100760006F915F914F913F912F911F910F91FF904A
:10077000EF90DF90CF90BF90AF909F908F907F9041
:100780006F905F904F903F902F901F900F900FBEF3
:100790000F9078941895DB018F939F930E94DB0351
:1007A000BF91AF91A29F800D911DA39F900DB29F0D
:1007B000900D112408950E94E603A59F900DB49F0B
:1007C000900DA49F800D911D11240895A29FB0014A
:1007D000B39FC001A39F700D811D1124911DB29F75
:1007E000700D811D1124911D0895CF93DF938230E8
:1007F000910510F482E090E0E0914401F091450110
:1008000020E030E0C0E0D0E0309711F1408151812C
:1008100048175907C0F04817590761F4828193813E
:10082000209719F09B838A832BC090934501809376
:10083000440126C02115310519F04217530718F459
:100840009A01BE01DF01EF010280F381E02DDCCFD0
:100850002115310509F1281B390B2430310590F49D
:1008600012968D919C9113976115710521F0FB01F2
:100870009383828304C09093450180934401FD01DA
:10088000329644C0FD01E20FF31F819391932250F1
:1008900031092D933C933AC020914201309143019C
:1008A000232B41F420910201309103013093430145
:1008B0002093420120910001309101012115310561
:1008C00041F42DB73EB74091040150910501241B1E
:1008D000350BE0914201F0914301E217F307A0F4D8
:1008E0002E1B3F0B2817390778F0AC014E5F5F4F86
:1008F0002417350748F04E0F5F1F50934301409374
:1009000042018193919302C0E0E0F0E0CF01DF91DA
:10091000CF9108950F931F93CF93DF93009709F41E
:100920008CC0FC0132971382128200914401109115
:1009300045010115110581F420813181820F931F3A
:1009400020914201309143012817390779F5F0933E
:100950004301E093420171C0D80140E050E0AE177E
:10096000BF0750F412962D913C911397AD012115BC
:10097000310509F1D901F3CF9D01DA0133832283D7
:1009800060817181860F971F8217930769F4EC01CC
:1009900028813981260F371F2E5F3F4F31832083F7
:1009A0008A819B8193838283452B29F4F0934501AF
:1009B000E093440142C01396FC93EE931297ED012D
:1009C000499159919E01240F351FE217F30771F4E5
:1009D00080819181840F951F029611969C938E932E
:1009E0008281938113969C938E931297E0E0F0E0BE
:1009F000D80112968D919C911397009719F0F801E8
:100A00008C01F6CF8D919C9198012E5F3F4F820F04
:100A1000931F20914201309143012817390769F44F
:100A2000309729F4109245011092440102C01382BC
:100A300012821093430100934201DF91CF911F91E5
:080A40000F910895F894FFCF17
:0A0A4800000046012000010001003B
:00000001FF
