:100000000C9434000C9451000C9451000C94510049
:100010000C9451000C9451000C9451000C9451001C
:100020000C9451000C9451000C9451000C94B802A3
:100030000C9451000C9451000C9451000C945100FC
:100040000C9451000C9451000C9451000C945100EC
:100050000C9451000C9451000C9451000C945100DC
:100060000C9451000C94510011241FBECFEFD8E026
:10007000DEBFCDBF11E0A0E0B1E0E4E7FCE002C0EC
:1000800005900D92AA30B107D9F721E0AAE0B1E0BE
:1000900001C01D92AE34B207E1F70E94BB010C947F
:1000A00038060C940000CF93DF9300D000D0CDB77A
:1000B000DEB719821A821B821C8289819A81AB81E8
:1000C000BC810196A11DB11D89839A83AB83BC833A
:1000D00085E290E0FC01108219821A821B821C8248
:1000E00064E670E080E090E00E94490285E290E0E2
:1000F00020E2FC01208364E670E080E090E00E9452
:100100004902DBCFCF93DF9300D000D0CDB7DEB76D
:1001100019821A821B821C8289819A81AB81BC81DF
:100120000196A11DB11D89839A83AB83BC8319827B
:100130001A821B821C82F0CFCF93DF93CDB7DEB73C
:100140008091180190911901FC018081918121E039
:1001500030E0FC01318B208B88EB92E0FC010994AC
:10016000DF91CF9108950F931F93CF93DF9300D02A
:10017000CDB7DEB79A83898380910E0190910F01EC
:10018000892B99F4009114011091150188E190E0F8
:100190000E940B05F8019183808380911401909156
:1001A0001501FC011382128236C0009118011091D2
:1001B000190188E190E00E940B05F8019383828386
:1001C0008091180190911901FC0182819381209105
:1001D000180130911901FC013583248380911801A5
:1001E00090911901FC018281938190931901809370
:1001F0001801009118011091190188E190E00E9406
:100200000B05F80191838083809118019091190169
:10021000FC01138212828091180190911901FC0156
:100220008081918120910E0130910F01FC01318379
:1002300020838091180190911901FC0180819181A6
:1002400029813A81FC01358724878091180190919A
:100250001901FC01808191812091180130911901CF
:10026000F90120813181F901248535853327FC018D
:10027000318720878091180190911901FC018081BC
:1002800091812091180130911901F901208131816A
:10029000F90124853585232F3327FC0133872287F5
:1002A0008091180190911901FC0180819181409108
:1002B0000E0150910F016CE964039001659F300DB0
:1002C00011242053384F3327FC0135832483809138
:1002D000180190911901FC018081918140910E01DA
:1002E00050910F016CE964039001659F300D11245A
:1002F0002053384F232F3327FC01338322838091EF
:10030000180190911901FC018081918121E030E078
:10031000FC01378726878091180190911901FC0113
:1003200080819181FC01118A108A8091180190913D
:100330001901FC0180819181FC01128A138A148ABF
:10034000158A8091180190911901FC018081918199
:10035000FC01178A168A80910E0190910F01019677
:1003600090930F0180930E010F900F90DF91CF912A
:100370001F910F910895CF93DF93CDB7DEB7F89417
:1003800084E290E02FEFFC01208380E49FE19093D2
:1003900013018093120180E890E0FC01108281E853
:1003A00090E0FC01108284E890E0FC011182108250
:1003B00088E890E02091120130911301FC01318313
:1003C000208381E890E021E830E0F9012081286075
:1003D000FC01208381E890E021E830E0F9012081F0
:1003E0002160FC0120838FE690E02FE630E0F901E8
:1003F00020812260FC01208386E090E00E940B05B2
:10040000909315018093140180911401909115012E
:10041000909319018093180183E590E00E94B30046
:10042000809118019091190190931101809310010E
:1004300082E890E00E94B3008CE990E00E94B30053
:1004400080911801909119012091140130911501AA
:10045000FC01338322838091140190911501209136
:10046000180130911901FC01358324838091140116
:1004700090911501909319018093180178948091BF
:100480000A0190910B01019690930B0180930A0150
:10049000F6CF7B018C018091180190911901DC014C
:1004A000ED91FC918091120190911301092E000CA5
:1004B000AA0BBB0B9C01AD01C801B7010E94E1046E
:1004C000DC01CB019C01AD01220F331F441F551FDE
:1004D0008091120190911301092E000CAA0BBB0B05
:1004E000820F931FA41FB51F828B938BA48BB58B98
:1004F0008091180190911901FC01848195812091CE
:10050000180130911901D90112962D913C91139740
:10051000FC01338322838091180190911901DC0141
:1005200012968D919C911397209118013091190189
:10053000F90124813581DC0115963C932E931497A3
:100540008091180190911901FC018081918121E035
:1005500030E0DC0157963C932E93569781E090E073
:1005600090930D0180930C0188EB92E0FC010994BB
:10057000F89480910C0190910D01892B59F081E044
:1005800090E0909309018093080110920D01109260
:100590000C010AC0809108019091090101E08027B7
:1005A00090930901809308018091140190911501A5
:1005B000FC0180819181FC0182899389A489B5899C
:1005C000181619061A061B064CF580911401909115
:1005D0001501FC01608171818091140190911501D8
:1005E000FC0180819181FC012289338944895589EC
:1005F0008091120190911301092E000CAA0BBB0BE4
:1006000079018A01E81AF90A0A0B1B0BD801C70104
:10061000FB01828B938BA48BB58B4FC0809114010F
:1006200090911501FC0180819181FC018689978957
:10063000892B09F442C08091140190911501FC01AD
:1006400080819181FC01128A138A148A158A809113
:100650001801909119012091140130911501FC01AC
:100660003383228380911801909119012091140104
:1006700030911501FC013583248380911401909100
:1006800015012091180130911901FC013383228357
:100690008091140190911501209118013091190158
:1006A000FC01358324838091140190911501FC0194
:1006B00080819181FC01178A168A809106019091B0
:1006C0000701892B09F43EC0109207011092060120
:1006D0008091180190911901FC0180819181FC01A8
:1006E00084819581082E0DBE809118019091190189
:1006F000FC0180819181FC0182819381082E0EBED4
:100700008091180190911901FC0180819181FC0177
:1007100080859185282F2F93809118019091190140
:10072000FC0180819181FC0182859385282F2F9384
:100730008091180190911901FC0180819181FC0147
:10074000178616868091080190910901009709F497
:1007500036C18091180190911901FC01808191812D
:10076000FC0180899189892B09F040C00F920FB656
:10077000F8940F921F9211242F923F924F925F9202
:100780006F927F928F929F92AF92BF92CF92DF92A1
:10079000EF92FF920F931F932F933F934F935F938B
:1007A0006F937F938F939F93AF93BF93CF93DF9379
:1007B000EF93FF932DB68091180190911901FC01E0
:1007C00080819181222D222F30E0FC01358324830A
:1007D0003EB68091180190911901FC0180819181B0
:1007E000232D222F30E0FC013383228380911801D6
:1007F00090911901FC0182819381FC01808191819A
:10080000FC0180899189892B09F44CC080911801E1
:1008100090911901FC01828193819093170180933B
:1008200016018091180190911901209118013091C1
:100830001901F90122813381F90122813381FC01FF
:10084000338322838091180190911901FC018281E8
:1008500093812091180130911901FC013583248383
:100860008091180190911901FC01828193819093EC
:100870001901809318018091160190911701FC01D4
:10088000808191810E94A0058091160190911701AD
:10089000FC011382128280911601909117010E942F
:1008A000A0050BC08091180190911901FC01828173
:1008B0009381909319018093180180911801909170
:1008C0001901FC0180819181FC0186859785892B26
:1008D00009F43BC08091180190911901FC018081BD
:1008E0009181FC0184819581082E0DBE80911801B3
:1008F00090911901FC0180819181FC018281938199
:10090000082E0EBE8091180190911901FC01808182
:100910009181FC0180859185282F2F93809118016A
:1009200090911901FC0180819181FC018285938560
:10093000282F2F938091180190911901FC0180813B
:100940009181FC01178616863AC08091180190911A
:100950001901FC0180819181FC0184819581082E1F
:100960000DBE8091180190911901FC018081918147
:10097000FC0182819381082E0EBEFF91EF91DF91E1
:10098000CF91BF91AF919F918F917F916F915F9127
:100990004F913F912F911F910F91FF90EF90DF901A
:1009A000CF90BF90AF909F908F907F906F905F900F
:1009B0004F903F902F901F900F900FBE0F90789404
:1009C0001895DB018F939F930E94F104BF91AF9123
:1009D000A29F800D911DA39F900DB29F900D112499
:1009E00008950E94FC04A59F900DB49F900DA49FB4
:1009F000800D911D11240895A29FB001B39FC001E5
:100A0000A39F700D811D1124911DB29F700D811D3A
:100A10001124911D0895CF93DF938230910510F436
:100A200082E090E0E0914C01F0914D0120E030E057
:100A3000C0E0D0E0309711F140815181481759074B
:100A4000C0F04817590761F482819381209719F00B
:100A50009B838A832BC090934D0180934C0126C0C9
:100A60002115310519F04217530718F49A01BE01F8
:100A7000DF01EF010280F381E02DDCCF211531058C
:100A800009F1281B390B2430310590F412968D9111
:100A90009C9113976115710521F0FB01938382836B
:100AA00004C090934D0180934C01FD01329644C0E7
:100AB000FD01E20FF31F81939193225031092D9391
:100AC0003C933AC020914A0130914B01232B41F4D1
:100AD000209102013091030130934B0120934A0190
:100AE00020910001309101012115310541F42DB70C
:100AF0003EB74091040150910501241B350BE09154
:100B00004A01F0914B01E217F307A0F42E1B3F0BB3
:100B10002817390778F0AC014E5F5F4F241735076F
:100B200048F04E0F5F1F50934B0140934A01819351
:100B3000919302C0E0E0F0E0CF01DF91CF91089502
:100B40000F931F93CF93DF93009709F48CC0FC01A0
:100B500032971382128200914C0110914D010115C0
:100B6000110581F420813181820F931F20914A0168
:100B700030914B012817390779F5F0934B01E09339
:100B80004A0171C0D80140E050E0AE17BF0750F4F1
:100B900012962D913C911397AD012115310509F164
:100BA000D901F3CF9D01DA01338322836081718102
:100BB000860F971F8217930769F4EC01288139810A
:100BC000260F371F2E5F3F4F318320838A819B8101
:100BD00093838283452B29F4F0934D01E0934C01DC
:100BE00042C01396FC93EE931297ED0149915991EF
:100BF0009E01240F351FE217F30771F48081918164
:100C0000840F951F029611969C938E9382819381F7
:100C100013969C938E931297E0E0F0E0D801129621
:100C20008D919C911397009719F0F8018C01F6CFE4
:100C30008D919C9198012E5F3F4F820F931F2091C1
:100C40004A0130914B012817390769F4309729F48C
:100C500010924D0110924C0102C013821282109327
:100C60004B0100934A01DF91CF911F910F9108959D
:040C7000F894FFCF26
:0A0C740000004E0120000100010005
:00000001FF
