S00F0000415652474343312E737265632E
S11300000C9434000C9451000C9451000C94510045
S11300100C9451000C9451000C9451000C94510018
S11300200C9451000C9451000C9451000C94110246
S11300300C9451000C9451000C9451000C945100F8
S11300400C9451000C9451000C9451000C945100E8
S11300500C9451000C9451000C9451000C945100D8
S11300600C9451000C94510011241FBECFEFD8E022
S1130070DEBFCDBF11E0A0E0B1E0EEE0F9E002C0E8
S113008005900D92A830B107D9F721E0A8E0B1E0BE
S113009001C01D92AA33B207E1F70E9496010C94A5
S11300A085040C940000CF93DF9300D000D0CDB72B
S11300B0DEB719821A821B821C8289819A81AB81E4
S11300C0BC810196A11DB11D89839A83AB83BC8336
S11300D085E290E0FC01108219821A821B821C8244
S11300E0ECCFCF93DF9300D000D0CDB7DEB7198229
S11300F01A821B821C8289819A81AB81BC81019600
S1130100A11DB11D89839A83AB83BC8385E290E0F2
S113011020E2FC01208319821A821B821C82EBCF0D
S1130120CF93DF9300D0CDB7DEB781E192E09A831D
S113013089838091100190911101FC01808191814A
S113014021E030E0FC01318B208B81E192E0FC0165
S1130150099486E590E09A8389830F900F90DF914C
S1130160CF9108950F931F93CF93DF9300D0CDB712
S1130170DEB79A83898380910A0190910B01892BC0
S113018099F400910E0110910F0182E190E00E9418
S11301905803F8019183808380910E0190910F019F
S11301A0FC011382128228C00091100110911101E8
S11301B082E190E00E945803F80193838283809146
S11301C0100190911101FC0182819381909311019E
S11301D080931001009110011091110182E190E0CF
S11301E00E945803F80191838083809110019091BB
S11301F01101FC011382128280911001909111016E
S1130200FC018081918120910A0130910B01FC0154
S1130210318320838091100190911101FC01808130
S1130220918129813A81FC013587248780911001CD
S113023090911101FC0180819181209110013091F4
S11302401101F90120813181F90124853585332794
S1130250FC01318720878091100190911101FC01EC
S1130260808191812091100130911101F901208147
S11302703181F90124853585232F3327FC01338708
S113028022878091100190911101FC01808191815C
S113029040910A0150910B016CE964039001659F40
S11302A0300D11242053384F3327FC013583248328
S11302B08091100190911101FC0180819181409104
S11302C00A0150910B016CE964039001659F300DA4
S11302D011242053384F232F3327FC0133832283E7
S11302E08091100190911101FC018081918121E0A4
S11302F030E0FC013787268780911001909111012D
S1130300FC0180819181FC01118A108A80910A018B
S113031090910B01019690930B0180930A010F9029
S11303200F90DF91CF911F910F910895CF93DF9399
S1130330CDB7DEB7F89484E290E02FEFFC01208380
S113034084E690E090930D0180930C0180E890E0A6
S1130350FC01108281E890E0FC01108284E890E0C6
S1130360FC011182108288E890E020910C01309108
S11303700D01FC013183208381E890E021E830E025
S1130380F90120812860FC01208381E890E021E8C4
S113039030E0F90120812160FC0120838FE690E0A8
S11303A02FE630E0F90120812260FC01208384E003
S11303B090E00E94580390930F0180930E01809166
S11303C00E0190910F01909311018093100183E528
S11303D090E00E94B20081E790E00E94B20080E9C0
S11303E090E00E94B200809110019091110120913F
S11303F00E0130910F01FC013383228380910E01A1
S113040090910F0190931101809310017894809141
S113041008019091090101969093090180930801C4
S1130420F6CFF8948091060190910701892B09F485
S11304303FC0109207011092060180911001909123
S11304401101FC0180819181FC0184819581082E38
S11304500DBE8091100190911101FC018081918168
S1130460FC0182819381082E0EBE8091100190912F
S11304701101FC0180819181FC0180859185282FE7
S11304802F938091100190911101FC018081918141
S1130490FC0182859385282F2F93809110019091E0
S11304A01101FC0180819181FC0117861686F4C03C
S11304B08091100190911101FC0180819181FC01D6
S11304C080899189892B09F03CC00F920FB6F8946A
S11304D00F921F9211242F923F924F925F926F922C
S11304E07F928F929F92AF92BF92CF92DF92EF92C0
S11304F0FF920F931F932F933F934F935F936F93A9
S11305007F938F939F93AF93BF93CF93DF93EF9397
S1130510FF930DB68091100190911101FC0180812F
S11305209181202DFC01358324830EB68091100126
S113053090911101FC0180819181202DFC01338374
S113054022838091100190911101FC018281938199
S1130550FC0180819181FC0180899189892B79F04A
S11305608091100190911101FC0182819381FC0121
S11305708281938190931101809310010BC080912B
S1130580100190911101FC018281938190931101DA
S1130590809310018091100190911101FC018081E0
S11305A09181FC0186859785892B09F43BC0809154
S11305B0100190911101FC0180819181FC018481E1
S11305C09581082E0DBE8091100190911101FC01BE
S11305D080819181FC0182819381082E0EBE8091DD
S11305E0100190911101FC0180819181FC018085B1
S11305F09185282F2F938091100190911101FC0176
S113060080819181FC0182859385282F2F9380918D
S1130610100190911101FC0180819181FC011786E8
S113062016863AC08091100190911101FC018081DD
S11306309181FC0184819581082E0DBE8091100169
S113064090911101FC0180819181FC01828193814F
S1130650082E0EBEFF91EF91DF91CF91BF91AF9124
S11306609F918F917F916F915F914F913F912F91C6
S11306701F910F91FF90EF90DF90CF90BF90AF90BC
S11306809F908F907F906F905F904F903F902F90AE
S11306901F900F900FBE0F9084E890E0FC01118230
S11306A0108286E390E022E0FC0120837894189580
S11306B0CF93DF938230910510F482E090E0E091D3
S11306C03801F091390120E030E0C0E0D0E030970B
S11306D011F14081518148175907C0F04817590753
S11306E061F482819381209719F09B838A832BC0C4
S11306F0909339018093380126C02115310519F0F2
S11307004217530718F49A01BE01DF01EF0102807A
S1130710F381E02DDCCF2115310509F1281B390BBC
S11307202430310590F412968D919C9113976115A4
S1130730710521F0FB019383828304C090933901F6
S113074080933801FD01329644C0FD01E20FF31F8E
S113075081939193225031092D933C933AC0209177
S1130760360130913701232B41F42091020130915D
S11307700301309337012093360120910001309119
S113078001012115310541F42DB73EB74091040113
S113079050910501241B350BE0913601F09137018E
S11307A0E217F307A0F42E1B3F0B2817390778F044
S11307B0AC014E5F5F4F2417350748F04E0F5F1FA3
S11307C050933701409336018193919302C0E0E046
S11307D0F0E0CF01DF91CF9108950F931F93CF9352
S11307E0DF93009709F48CC0FC01329713821282C4
S11307F000913801109139010115110581F420810E
S11308003181820F931F20913601309137012817CF
S1130810390779F5F0933701E093360171C0D801B7
S113082040E050E0AE17BF0750F412962D913C9172
S11308301397AD012115310509F1D901F3CF9D01BC
S1130840DA013383228360817181860F971F8217B7
S1130850930769F4EC0128813981260F371F2E5F35
S11308603F4F318320838A819B8193838283452BED
S113087029F4F0933901E093380142C01396FC93B4
S1130880EE931297ED01499159919E01240F351F62
S1130890E217F30771F480819181840F951F02960A
S11308A011969C938E938281938113969C938E933D
S11308B01297E0E0F0E0D80112968D919C91139785
S11308C0009719F0F8018C01F6CF8D919C91980155
S11308D02E5F3F4F820F931F2091360130913701D5
S11308E02817390769F4309729F4109239011092C6
S11308F0380102C01382128210933701009336012B
S1110900DF91CF911F910F910895F894FFCFCE
S10B090E00003A012000010081
S9030000FC
