:100000000C9434000C9451000C9451000C94510049
:100010000C9451000C9451000C9451000C9451001C
:100020000C9451000C9451000C9451000C94A601B6
:100030000C9451000C9451000C9451000C945100FC
:100040000C9451000C9451000C9451000C945100EC
:100050000C9451000C9451000C9451000C945100DC
:100060000C9451000C94510011241FBECFEFD8E026
:10007000DEBFCDBF11E0A0E0B1E0E6ECF5E002C0EC
:1000800005900D92A230B107D9F721E0A2E0B1E0CE
:1000900001C01D92AA32B207E1F70E9452010C94EE
:1000A000E1020C940000CF93DF9300D000D0CDB7D5
:1000B000DEB719821A821B821C8289819A81AB81E8
:1000C000BC810196A11DB11D89839A83AB83BC833A
:1000D00085E290E0FC01108219821A821B821C8248
:1000E000ECCFCF93DF9300D000D0CDB7DEB719822D
:1000F0001A821B821C8289819A81AB81BC81019604
:10010000A11DB11D89839A83AB83BC8385E290E0F6
:1001100020E2FC01208319821A821B821C82EBCF11
:10012000CF93DF9300D0CDB7DEB79A8389838091D8
:1001300006019091070120910601309107018295F7
:100140009295907F9827807F9827865F9E4FFC012D
:1001500031832083809106019091070182959295C9
:10016000907F9827807F98278A5E9E4F29813A81C9
:10017000FC01318320838091060190910701209139
:1001800006013091070122953295307F3227207F7A
:1001900032272A5E3E4FF901208131813327829533
:1001A0009295907F9827807F98278E5E9E4FFC01C6
:1001B00031832083809106019091070120910601EF
:1001C0003091070122953295307F3227207F3227E8
:1001D0002A5E3E4FF90120813181232F33278295FA
:1001E0009295907F9827807F98278C5E9E4FFC0188
:1001F000318320838091060190910701409106018F
:10020000509107016CE964039001659F300D112442
:100210002053384F332782959295907F9827807F7F
:100220009827825F9E4FFC013183208380910601D5
:100230009091070140910601509107016CE9640318
:100240009001659F300D11242053384F232F332701
:1002500082959295907F9827807F9827845F9E4F04
:10026000FC013183208380910601909107018295E2
:100270009295907F9827807F9827885E9E4F21E0F7
:1002800030E0FC01318320838091060190910701C9
:10029000019690930701809306010F900F90DF91D4
:1002A000CF910895CF93DF93CDB7DEB7F89484E272
:1002B00090E02FEFFC01208384E690E09093090109
:1002C0008093080180E890E0FC01108281E890E0D2
:1002D000FC01108284E890E0FC011182108288E821
:1002E00090E02091080130910901FC0131832083C5
:1002F00081E890E021E830E0F90120812860FC01EC
:10030000208381E890E021E830E0F901208121603C
:10031000FC0120838FE690E02FE630E0F901208198
:100320002260FC01208383E590E00E94900081E739
:1003300090E00E94900078948091020190910301D6
:1003400001969093030180930201F6CFF894809177
:10035000000190910101892B09F110920101109285
:10036000000180910E0190910F01082E0DBE809129
:100370000C0190910D01082E0EBE809112019091FA
:100380001301282F2F938091140190911501282F8C
:100390002F93109219011092180107C10F920FB6F6
:1003A000F8940F921F9211242F923F924F925F92D6
:1003B0006F927F928F929F92AF92BF92CF92DF9275
:1003C000EF92FF920F931F932F933F934F935F935F
:1003D0006F937F938F939F93AF93BF93CF93DF934D
:1003E000EF93FF930DB68091040190910501202DAC
:1003F00082959295907F9827807F9827825F9E4F65
:10040000FC01318320830EB6809104019091050197
:10041000202D82959295907F9827807F9827845FE2
:100420009E4FFC013183208380910401909105014E
:10043000892B39F481E090E09093050180930401C9
:100440000AC08091040190910501019721F4109256
:10045000050110920401809104019091050182959B
:100460009295907F9827807F9827885E9E4FFC0109
:1004700080819181892B09F454C08091040190916D
:10048000050182959295907F9827807F9827825FBB
:100490009E4FFC0180819181082E0DBE8091040148
:1004A0009091050182959295907F9827807F98275B
:1004B000845F9E4FFC0180819181082E0EBE809149
:1004C00004019091050182959295907F9827807FF5
:1004D00098278E5E9E4FFC0180819181282F2F935B
:1004E000809104019091050182959295907F9827C3
:1004F000807F98278C5E9E4FFC0180819181282F00
:100500002F93809104019091050182959295907F9F
:100510009827807F9827885E9E4FFC011182108269
:1005200044C0809104019091050182959295907F3D
:100530009827807F9827825F9E4FFC018081918160
:10054000082E0DBE8091040190910501829592952F
:10055000907F9827807F9827845F9E4FFC01808141
:100560009181082E0EBEFF91EF91DF91CF91BF9147
:10057000AF919F918F917F916F915F914F913F913B
:100580002F911F910F91FF90EF90DF90CF90BF9030
:10059000AF909F908F907F906F905F904F903F9023
:1005A0002F901F900F900FBE0F9084E890E0FC01F9
:1005B0001182108286E390E022E0FC01208378948F
:0605C0001895F894FFCF2E
:0205C600010032
:00000001FF
